{
  "transactions": [
    {
      "hash": "0x0e682d76a6f490d38d0e72758f86f414e2437384070e16c60b083cb2faf2e5a6",
      "transactionType": "CALL",
      "contractName": null,
      "contractAddress": "0x4e1dcf7ad4e460cfd30791ccc4f9c8a4f820ec67",
      "function": "createProxyWithNonce(address,bytes,uint256)",
      "arguments": [
        "0x29fcB43b46531BcA003ddC8FCB67FFE91900C762",
        "0xb63e800d0000000000000000000000000000000000000000000000000000000000000100000000000000000000000000000000000000000000000000000000000000000200000000000000000000000000000000000000000000000000000000000000000000000000000000000000000000000000000000000000000000000000000180000000000000000000000000fd0732dc9e303f09fcef3a7388ad10a83459ec990000000000000000000000000000000000000000000000000000000000000000000000000000000000000000000000000000000000000000000000000000000000000000000000000000000000000000000000000000000000000000000000000000000000000000000000000000000000000000000000000000000000000003000000000000000000000000bce7b3eb6cf8b23957547fbcca21333bb85cb1a7000000000000000000000000d6dd50933f8b39e63af683153a5b75e47c879f4b000000000000000000000000e0d9466626be495c8ecc339e6866f72e9dad06c90000000000000000000000000000000000000000000000000000000000000000",
        "15167768249461358401045789775173370439311189326961304675116343376490937276001"
      ],
      "transaction": {
        "from": "0xe0d9466626be495c8ecc339e6866f72e9dad06c9",
        "to": "0x4e1dcf7ad4e460cfd30791ccc4f9c8a4f820ec67",
        "gas": "0x7736f",
        "value": "0x0",
        "input": "0x1688f0b900000000000000000000000029fcb43b46531bca003ddc8fcb67ffe91900c76200000000000000000000000000000000000000000000000000000000000000602188a710d4beadd1c95b09a8ca3c726135897ec78b87c5bbb44e0cacd7b9566100000000000000000000000000000000000000000000000000000000000001a4b63e800d0000000000000000000000000000000000000000000000000000000000000100000000000000000000000000000000000000000000000000000000000000000200000000000000000000000000000000000000000000000000000000000000000000000000000000000000000000000000000000000000000000000000000180000000000000000000000000fd0732dc9e303f09fcef3a7388ad10a83459ec990000000000000000000000000000000000000000000000000000000000000000000000000000000000000000000000000000000000000000000000000000000000000000000000000000000000000000000000000000000000000000000000000000000000000000000000000000000000000000000000000000000000000003000000000000000000000000bce7b3eb6cf8b23957547fbcca21333bb85cb1a7000000000000000000000000d6dd50933f8b39e63af683153a5b75e47c879f4b000000000000000000000000e0d9466626be495c8ecc339e6866f72e9dad06c9000000000000000000000000000000000000000000000000000000000000000000000000000000000000000000000000000000000000000000000000",
        "nonce": "0x0",
        "chainId": "0x279f"
      },
      "additionalContracts": [
        {
          "transactionType": "CREATE2",
          "contractName": null,
          "address": "0x0eb17425255d826e1fbaf5c473a238bb3ead8a92",
          "initCode": "0x608060405234801561001057600080fd5b506040516101e63803806101e68339818101604052602081101561003357600080fd5b8101908080519060200190929190505050600073ffffffffffffffffffffffffffffffffffffffff168173ffffffffffffffffffffffffffffffffffffffff1614156100ca576040517f08c379a00000000000000000000000000000000000000000000000000000000081526004018080602001828103825260228152602001806101c46022913960400191505060405180910390fd5b806000806101000a81548173ffffffffffffffffffffffffffffffffffffffff021916908373ffffffffffffffffffffffffffffffffffffffff1602179055505060ab806101196000396000f3fe608060405273ffffffffffffffffffffffffffffffffffffffff600054167fa619486e0000000000000000000000000000000000000000000000000000000060003514156050578060005260206000f35b3660008037600080366000845af43d6000803e60008114156070573d6000fd5b3d6000f3fea264697066735822122003d1488ee65e08fa41e58e888a9865554c535f2c77126a82cb4c0f917f31441364736f6c63430007060033496e76616c69642073696e676c65746f6e20616464726573732070726f766964656400000000000000000000000029fcb43b46531bca003ddc8fcb67ffe91900c762"
        }
      ],
      "isFixedGasLimit": false
    }
  ],
  "receipts": [
    {
      "type": "0x2",
      "status": "0x1",
      "cumulativeGasUsed": "0x7736f",
      "logs": [
        {
          "address": "0x0eb17425255d826e1fbaf5c473a238bb3ead8a92",
          "topics": [
            "0x141df868a6331af528e38c83b7aa03edc19be66e37ae67f9285bf4f8e3c6a1a8",
            "0x0000000000000000000000004e1dcf7ad4e460cfd30791ccc4f9c8a4f820ec67"
          ],
          "data": "0x000000000000000000000000000000000000000000000000000000000000008000000000000000000000000000000000000000000000000000000000000000020000000000000000000000000000000000000000000000000000000000000000000000000000000000000000fd0732dc9e303f09fcef3a7388ad10a83459ec990000000000000000000000000000000000000000000000000000000000000003000000000000000000000000bce7b3eb6cf8b23957547fbcca21333bb85cb1a7000000000000000000000000d6dd50933f8b39e63af683153a5b75e47c879f4b000000000000000000000000e0d9466626be495c8ecc339e6866f72e9dad06c9",
          "blockHash": "0xb4a29d43d9315a63cab154192d7166d935919e2a246fc054255418ddbe6dd9f4",
          "blockNumber": "0x2c3a982",
          "blockTimestamp": "0x6a5d4559",
          "transactionHash": "0x0e682d76a6f490d38d0e72758f86f414e2437384070e16c60b083cb2faf2e5a6",
          "transactionIndex": "0x1",
          "logIndex": "0x1",
          "removed": false
        },
        {
          "address": "0x4e1dcf7ad4e460cfd30791ccc4f9c8a4f820ec67",
          "topics": [
            "0x4f51faf6c4561ff95f067657e43439f0f856d97c04d9ec9070a6199ad418e235",
            "0x0000000000000000000000000eb17425255d826e1fbaf5c473a238bb3ead8a92"
          ],
          "data": "0x00000000000000000000000029fcb43b46531bca003ddc8fcb67ffe91900c762",
          "blockHash": "0xb4a29d43d9315a63cab154192d7166d935919e2a246fc054255418ddbe6dd9f4",
          "blockNumber": "0x2c3a982",
          "blockTimestamp": "0x6a5d4559",
          "transactionHash": "0x0e682d76a6f490d38d0e72758f86f414e2437384070e16c60b083cb2faf2e5a6",
          "transactionIndex": "0x1",
          "logIndex": "0x2",
          "removed": false
        }
      ],
      "logsBloom": "0x00000000000000000000000000000000000000000000000000000000000000000000000000000000000000000000000000000000000000000000000000000000000010000200000000000000000000000000000000000028000000000000000000000000000000000500000000000000000000000100000002000000000000000800000000000200000000000000000000000000000000000000000000000000000000000000001000100000000000000000000000000000000000000000000000000000000000000000000000000000000000000000000000000000000000000000080000010000000000800000100020000000000000000000000000000000",
      "transactionHash": "0x0e682d76a6f490d38d0e72758f86f414e2437384070e16c60b083cb2faf2e5a6",
      "transactionIndex": "0x1",
      "blockHash": "0xb4a29d43d9315a63cab154192d7166d935919e2a246fc054255418ddbe6dd9f4",
      "blockNumber": "0x2c3a982",
      "gasUsed": "0x7736f",
      "effectiveGasPrice": "0x18121167ce",
      "from": "0xe0d9466626be495c8ecc339e6866f72e9dad06c9",
      "to": "0x4e1dcf7ad4e460cfd30791ccc4f9c8a4f820ec67",
      "contractAddress": null
    }
  ],
  "libraries": [],
  "pending": [],
  "returns": {
    "0": {
      "internal_type": "address",
      "value": "0x0Eb17425255d826e1FbAF5c473A238bB3EAd8a92"
    }
  },
  "timestamp": 1784497496664,
  "chain": 10143,
  "commit": "9d5c7c1"
}